:100000000C94F7000C9447160C9420160C94F915D8
:100010000C94D2150C941F010C941F010C94AB1579
:100020000C941F010C941F010C94C6100C943811F1
:100030000C941F010C941F010C941F010C941F01C0
:100040000C941F010C9468130C941F010C941F0155
:100050000C941F010C941F010C941F010C942D0E85
:100060000C941F010C944E150C9428150C941F0130
:100070000C941F010C941F010C941F010C941F0180
:100080000C941F010C941F010C941F010C941F0170
:100090000C941F010C941F010C941F010C941F0160
:1000A0000C941F010C941F010C941F01F714FA14F7
:1000B000E914ED14F3141B151B151B15FE14021582
:1000C00006150C1510151B15161538173D17421778
:1000D0004C175617A017A017A01760176A177417A8
:1000E0007E178B17A0179317080B0002020201005E
:1000F000090400000102020000052400100105248B
:1001000001010104240206052406000107058103FC
:1001100010004009040100020A0000000705020265
:100120004000000705830240000004030904120197
:100130000002EF0201404123368000010102030169
:1001400041726475696E6F204C4C430055534220D8
:10015000494F20426F6172640000000000240027B4
:10016000002A002D00300000000000250028002B90
:10017000002E003100000000002300260029002C82
:10018000002F000404040404030405020202020414
:100190000302020202060606060606040402020222
:1001A0000404040802011040804010204080408078
:1001B00008020401804020100201108010204040FD
:1001C00020070605040100080A0B0C0D09000000B9
:1001D0000200090F0000030401000C0000000000F1
:1001E000000000000000000000000000FC1D1124C1
:1001F0001FBECFEFDAE0DEBFCDBF13E0A0E0B1E07D
:10020000E2E4FDE402C005900D92A234B107D9F7F3
:100210002AE0A2E4B3E001C01D92AA30B207E1F7E0
:1002200010E0C7EFD0E004C02197FE010E948526B0
:10023000C63FD107C9F70E94591A0C9413210C9498
:1002400000003FB7F8948091470390914803A09134
:100250004903B0914A0326B5A89B05C02F3F19F06A
:100260000196A11DB11D3FBFBA2FA92F982F882736
:10027000820F911DA11DB11DBC01CD0142E0660F91
:10028000771F881F991F4A95D1F7089585ED91E052
:10029000089586EF91E00895FC0184859585089581
:1002A00085E092E0089586E292E00895FC0182855F
:1002B00093850895DC011896ED91FC9119970696A7
:1002C00009948F929F92AF92BF92CF92DF92EF925A
:1002D000FF920F931F93CF93DF9300D000D01F9214
:1002E000CDB7DEB78C016B0164E6C616D1043CF0D5
:1002F000FC01EE57FB4F8081882309F478C0DA01B6
:10030000ED91FC910190F081E02DB801655E7D4F8B
:10031000CA0109959C017801BCEEEB1ABDEFFB0AFE
:100320004FEFF70140834EEF319640833196808343
:10033000319690833196890F809580833196C08263
:10034000D801A65EBD4FDC9265E070E040E050E071
:10035000C90107966817790730F4A1914A0F511D1A
:100360006F5F7F4FF7CF6901F8E0CF0ED11C800F90
:10037000911FFC01EC5EFD4F4095408341E0C416A7
:1003800042E0D406C1F056014701D80112968D9182
:100390009C911397F40161914F01DC01ED91FC9167
:1003A0000190F081E02D0995C4018E199F098C15EB
:1003B0009D055CF31EC084E591E09A83898383E008
:1003C0008B8385E392E09D838C83D801ED91FC9132
:1003D0000190F081E02DAE014F5F5F4F67E070E06C
:1003E000C8010995AA24AA94BB24BA9402C0A12CDE
:1003F000B12CC5010F900F900F900F900F90DF91CF
:10040000CF911F910F91FF90EF90DF90CF90BF9011
:10041000AF909F908F900895FC01EE57FB4F808125
:100420000895CF92DF92EF92FF92FC011082118229
:1004300012821382DB0120E030E04D9150E0022E69
:1004400002C0440F551F0A94E2F7052E000C660BFC
:10045000770BC080D180E280F3804C295D296E2922
:100460007F294083518362837383285F3F4F20320B
:10047000310519F7FF90EF90DF90CF900895CF925C
:10048000DF92EF92FF9220E030E06A017B01022EC2
:1004900004C0F694E794D794C7940A94D2F7FC0169
:1004A000C192CF01285F3F4F2032310571F7FF9095
:1004B000EF90DF90CF90089585ED91E0089586EF5D
:1004C00091E00895FB01218130E0322F2227408105
:1004D000242BFC013383228382E090E008950F9364
:1004E0001F93CF93DF938C01EC012696CE010E94DF
:1004F0006202D8011A96ED91FC911B97CE01DF9113
:10050000CF911F910F910994FC0122818381FB01FE
:100510002083818382E090E0089585E092E0089551
:1005200086E292E0089580E090E0089580E090E017
:1005300008958EE692E008958CE191E008958FE8A9
:1005400092E0089580EB92E008958F929F92AF928F
:10055000BF92CF92DF92EF92FF920F931F93CF93B0
:10056000DF9300D000D0CDB7DEB77C018B01FB015B
:100570008191BF01F7018283CE0101960E94110291
:1005800089819A81AB81BC814C015D01F5E08F0EC0
:10059000911CA11CB11C680125E0C20ED11CA60152
:1005A000401B510B60E070E0481559056A057B055A
:1005B00048F4F60141916F019F0122503109F90180
:1005C0004083EDCFF801E80FF91F14820C5F1F4F35
:1005D000F7011483038305960F900F900F900F90EF
:1005E000DF91CF911F910F91FF90EF90DF90CF900F
:1005F000BF90AF909F908F90089583EC92E0089504
:1006000084EE92E008954F925F926F927F928F9264
:100610009F92AF92BF92CF92DF92EF92FF920F9391
:100620001F93CF93DF93CDB7DEB72C970FB6F89417
:10063000DEBF0FBECDBF7C018B01DB018C9190E052
:10064000F7019383828311962C91922B938382835B
:100650006E5F7F4FCE0109960E94110289849A84B1
:10066000AB84BC84B501A4014A5F5F4F6F4F7F4FDD
:10067000F8013696CF01801B910BA0E0B0E0841703
:100680009507A607B70728F48191DF0112978C938D
:10069000F1CFF801E80DF91D1582C8010596D701C3
:1006A00015969C938E931497B4016A5F7F4F600FE9
:1006B000711FCE0105960E941102BAE08B0E911CAB
:1006C0004D815E816F8178852401092C000C6608BC
:1006D0007708440E551E661E771EF801E80DF91DB9
:1006E000CF01801B910BA0E0B0E084159505A60515
:1006F000B70528F48191DF0112978C93F1CF640143
:10070000C40ED51EB8016C0D7D1DFB013197108202
:10071000C4010197800F911FF70197838683CE0153
:1007200001960E941102A6014C5F5F4F49805A80DA
:100730006B807C804A01052E000CAA08BB08840C43
:10074000951CA61CB71CF801E40FF51F9F01201B88
:10075000310BC901A0E0B0E088159905AA05BB05D9
:1007600028F48191DF0112978C93F0CFCA01840D98
:10077000951DF801E80FF91FDF0111971C929A01EE
:1007800021503109020F131FD70119961C930E93A4
:1007900018972181428150E060E070E0BA0155274E
:1007A0004427522B2081422B2381722BF701428751
:1007B00053876487758704962C960FB6F894DEBF2E
:1007C0000FBECDBFDF91CF911F910F91FF90EF90A2
:1007D000DF90CF90BF90AF909F908F907F906F9061
:1007E0005F904F9008958DEF92E008958EE193E031
:1007F0000895FC01DB014C9150E060E070E0428321
:1008000053836483758311968C911197582B42837F
:1008100053836483758312968C911297682B42835D
:1008200053836483758313968C911397782B42833B
:1008300053836483758314964C91149750E060E061
:1008400070E0468357836087718715968C91159762
:10085000582B468357836087718716968C9116971D
:10086000682B468357836087718717968C91782B06
:10087000468357836087718788E090E00895DC01A4
:10088000FB0112968C911297808313968C9113978B
:10089000818314968C911497828315968C91159769
:1008A000838316968C911697848317968C9117974D
:1008B000858318968C911897868319968C918783D7
:1008C00088E090E008952F923F924F925F926F924E
:1008D0007F928F929F92AF92BF92CF92DF92EF92D0
:1008E000FF920F931F93CF93DF93CDB7DEB7289777
:1008F0000FB6F894DEBF0FBECDBF8C015B01DB01EC
:100900008C9111969C9111971296CC901297D12CA4
:10091000E12CF12C7601DD24CC24D92AC82A1396A7
:100920008C91F82AF80182819381A481B5818C157C
:100930009D05AE05BF0570F4B601660F771F660F03
:10094000771F828593850E94D422D8011B969C93A1
:100950008E931A97F801C282D382E482F582D50180
:100960001796C12CD12C7601F4E08F2E912C980192
:100970002A5F3F4FF8014281538164817581C40130
:100980000496C416D506E606F70680F54C9150E0AD
:1009900060E070E0742F662755274427FD013397E8
:1009A000E0814E2BFD013297E0815E2BFD013197F6
:1009B000E0816E2BF80146835783608771874C0175
:1009C000089742855385840F951FF9014081518115
:1009D00062817381FC014083518362837383FFEFE3
:1009E000CF1ADF0AEF0AFF0A1496C4CFF401EA0D0A
:1009F000FB1D20813181C280D12CE12CF12C7601AC
:100A0000DD24CC24D32AC22A2381F22A4C01F80106
:100A100084859585A685B7858C159D05AE05BF0592
:100A200070F4B601660F771F660F771F848995896A
:100A30000E94D422D80155969C938E935497F80126
:100A4000C486D586E686F78620E030E0C12CD12C1E
:100A50007601D8015096F8014485558566857785DD
:100A6000F501E80DF91DC4010496C416D506E60685
:100A7000F70648F59180428150E060E070E0BA01ED
:100A800055274427592990804929E3817E2BF80175
:100A9000408B518B628B738B4C0184899589FC014F
:100AA000E20FF31F4D915D916D917C9113974083FF
:100AB000518362837383FFEFCF1ADF0AEF0AFF0AC5
:100AC0002C5F3F4FC8CF20813181C280D12CE12CD7
:100AD000F12C7601DD24CC24D32AC22A2381F22AE8
:100AE0004C01F80186899789A08DB18D8C159D05E3
:100AF000AE05BF0560F4B601660F771F848D958D36
:100B00000E94D422D8015D969C938E935C97F80145
:100B1000C68AD78AE08EF18E412C512C3201180101
:100B2000FAE12F0E311CF80186899789A08DB18DCD
:100B3000481659066A067B0608F05AC0B501680DCA
:100B4000791DCE0101960E94110294012C5F3F4F46
:100B5000C980DA80EB80FC80C901032E000CAA0B4F
:100B6000BB0BAC01BD014C0D5D1D6E1D7F1D4D838A
:100B70005E836F837887F501E20FF31FAF014A1997
:100B80005B09CA01A0E0B0E04D815E816F8178858C
:100B900084179507A607B70728F44191DF0112973C
:100BA0004C93ECCFC9018C0D9D1DF501E80FF91F89
:100BB00031971082215031092A0D3B1DD8015B96D7
:100BC0003C932E935A974C01C201880F991F5C9653
:100BD000ED91FC915D97E80FF91FD1018D919C91EA
:100BE00091838083BFEF4B1A5B0A6B0A7B0A9BCF12
:100BF000C40128960FB6F894DEBF0FBECDBFDF91BB
:100C0000CF911F910F91FF90EF90DF90CF90BF9009
:100C1000AF909F908F907F906F905F904F903F909C
:100C20002F9008954F925F926F927F92AF92BF92F2
:100C3000CF92DF92EF92FF920F931F93CF93DF93A8
:100C4000EC017B018A81FB0180838B8181838C8114
:100C500082838D818383DB01179640E050E0BA01E7
:100C6000E4E0F0E04A805B806C807D808F010C5F67
:100C70001F4F4415550566057705C0F48A859B8589
:100C8000E80FF91F3497D080218192818381FD0183
:100C90003397D08231962083319690838C93F801DC
:100CA0004F5F5F4F6F4F7F4F1496DCCFEE0DFF1DF0
:100CB0008C8580838D8581838E8582838F858383D8
:100CC00080E090E040E050E0BA014C845D846E84A6
:100CD0007F84F701E00FF11F0C5F1F4F441555058E
:100CE00066057705B8F4AC89BD89A80FB91FCC900B
:100CF0001196DC90119712963C91129713962C91B5
:100D0000C082D182328323834F5F5F4F6F4F7F4F0B
:100D10000496DBCF8E8980838F898183888D82833F
:100D2000898D8383412C512C32018E899F89A88D16
:100D3000B98D481659066A067B0680F55201AA0C41
:100D4000BB1CEC8DFD8DEA0DFB1DA081B181FD0169
:100D500001900020E9F731976F01CA1ADB0AA6015A
:100D600060E070E0C701800F911F0E943F020C5F9E
:100D70001F4F8C8D9D8DFC01EA0DFB1D60817181E3
:100D8000A601C701800F911F0E94A3230C0D1D1DFA
:100D9000FFEF4F1A5F0A6F0A7F0AC7CFC801DF91C2
:100DA000CF911F910F91FF90EF90DF90CF90BF9068
:100DB000AF907F906F905F904F900895EF92FF9269
:100DC0000F931F93CF93DF938C017B01EC018A81FA
:100DD000FB018193AB81BC81ED0109900020E9F713
:100DE0002197CA1BDB0BAE0160E070E0CF010E94CF
:100DF0003F02F80163817481AE01C70105960E942C
:100E0000A323CE010596DF91CF911F910F91FF9003
:100E1000EF900895CF92DF92EF92FF920F931F937E
:100E2000CF93DF936C01EB01FC0182818883838186
:100E30008983A481B581FD0101900020E9F73197F4
:100E40008F010A1B1B0BA80160E070E0CE01029627
:100E50000E943F02F60164817581A801CE010696C9
:100E60000E94A323C8010696F601A681B781FD0161
:100E700001900020E9F731977F01EA1AFB0AA701E8
:100E800060E070E08C0F9D1F0E943F02065F1F4FC5
:100E9000F60166817781A701CE01800F911F0E9424
:100EA000A3230E0D1F1DF601A085B185FD01019044
:100EB0000020E9F731977F01EA1AFB0AA70160E0F9
:100EC00070E0CE01800F911F0E943F020C5F1F4F08
:100ED000F60160857185A701CE01800F911F0E94E8
:100EE000A323C8018E0D9F1DF601628543853485BD
:100EF0002585C80FD91F688349833A832B830496BD
:100F0000DF91CF911F910F91FF90EF90DF90CF90E5
:100F100008958F929F92AF92BF92CF92DF92EF92FD
:100F2000FF926B017C010E9421014B015C01C11405
:100F3000D104E104F104F1F00E942101DC01CB01B4
:100F400088199909AA09BB09883E9340A105B105F2
:100F500070F321E0C21AD108E108F10888EE880E8A
:100F600083E0981EA11CB11CC114D104E104F1045A
:100F700019F7DDCFFF90EF90DF90CF90BF90AF904B
:100F80009F908F9008952FB7F894609143037091CC
:100F9000440380914503909146032FBF08950F931A
:100FA0001F93CF93DF93CDB7DEB72A970FB6F89490
:100FB000DEBF0FBECDBF8C0188E491E09A838983A8
:100FC0001B821C821D821E821F82188619861A8629
:100FD000D801ED91FC910190F081E02DAE014F5FC1
:100FE0005F4F6AE070E0C80109950E94C307F801ED
:100FF00060877187828793872A960FB6F894DEBF41
:101000000FBECDBFDF91CF911F910F9108952F9209
:101010003F924F925F926F927F928F929F92AF9288
:10102000BF92CF92DF92EF92FF920F931F93CF93D5
:10103000DF93CDB7DEB7A8970FB6F894DEBF0FBE2B
:10104000CDBF8C010E94C3072B013C019801295799
:101050003B4F3C8B2B8BF90180819181A281B38125
:10106000A3019201281B390B4A0B5B0BDA01C90162
:10107000893F9A42A105B10510F035971082780199
:1010800048E8E41A4BEFF40AD7018D919C91892B23
:1010900079F0F801E557FB4F80819181A281B381FE
:1010A00084159505A605B70518F4F701118210827D
:1010B000980120583B4F388B2F87A80144585B4F2D
:1010C0005A8B498BC80144969E8B8D8BD801AE57A5
:1010D000BB4FBA8FA98FF801E057FB4FF8A3EF8FF2
:1010E000215F3F4F3AA329A3180136E8231A3BEFAB
:1010F000330A4E5F5F4F588F4F8B89589B4F9CA38D
:101100008BA3A30192012C5E3F4F4F4F5F4F2DA346
:101110003EA34FA358A7D80112968D919C91139787
:10112000DC01ED91FC910680F781E02D09959C0191
:1011300097FD77C2EF85F88980819181820F931F97
:1011400091838083D7014D915C9147305105C9F45B
:10115000EF89F88D80819181AC014F5F5F4F5183A2
:101160004083F801E80FF91F248BD1018D919C91E8
:10117000119701978D939C93892B69F688E090E0F5
:1011800033C04115510541F52F3F310589F481E008
:1011900090E0D7018D939C932DA13EA14FA158A51E
:1011A000ABA1BCA12D933D934D935C931397B3CF0B
:1011B0000E94C307DC01CB0184199509A609B70970
:1011C0000697A105B10508F4A6CFF801EE57FB4F2D
:1011D00010828EEF9FEF4DC241305105A9F42E3F92
:1011E000310531F482E090E0F7019183808393CF61
:1011F000D7011D921C92E98DFA8D808181118BCFD0
:10120000C8010E94CF0787CF4230510589F4D10130
:101210002D933C93EF89F88D1182108283E090E04A
:10122000D7018D939C93EF85F8893183208373CF09
:101230004330510569F4322F2227D1018D919C91C1
:101240001197280F391F2D933C9384E090E0CCCF69
:101250004430510589F460E071E00E9471268F3FAF
:10126000910531F485E090E0D7018D939C9353CFA5
:10127000F701118210824FCF4530510571F4A989D1
:10128000BA892D933C9386E090E0F70191838083A7
:10129000AF85B8892D933C933ECF4630510599F4E4
:1012A000322F2227E989FA8980819181280F391FFD
:1012B0003183208387E090E0D7018D939C93F101E7
:1012C0008081918159CF4830510509F024CFD70151
:1012D0001D921C9260E071E00E9471268F3F910583
:1012E00009F019CFE989FA8980819181009709F085
:1012F000C7C0C8010E94CF078CE391E09A8389831D
:101300001C821B828DE692E09E838D8398878F835B
:101310009A8789871B861C861D861E865801FCEECF
:10132000AF1AFBEFBF0A68012AEBC21A2BEFD20AF1
:10133000D501ED91FC913097D9F1848195819C8301
:101340008B83808191819E838D8382819381DC0157
:10135000ED91FC910480F581E02D099598878F83AC
:10136000D501ED91FC9182819381DC01ED91FC919D
:101370000680F781E02D09959A87898720E032E081
:1013800040E050E02B873C874D875E87D8018D91E8
:101390009C91F501A081B18118966D917C9119976E
:1013A000DC01ED91FC91AE014F5F5F4FC8010995E3
:1013B000B2E0AB0EB11CAC14BD0409F0B9CF812C66
:1013C00092E0992EA12CB12CF601A081B181109749
:1013D000E1F112968D919C9113979C838B831496C7
:1013E0008D919C9115979E838D83ED91FC91119722
:1013F0000480F581E02DCD01099598878F83D60172
:101400008D919C91DC01ED91FC910680F781E02D9E
:1014100009959A8789878B869C86AD86BE86D8017A
:10142000ED91FC9120803180F60180819181DC0179
:10143000ED91FC910280F381E02D0995AE014F5FA3
:101440005F4FBC01C801F1010995F2E0CF0ED11C3C
:10145000CE14DF0409F0B8CFF801EE57FB4F81E05E
:10146000808331964082518262827382AB89BC89CB
:101470004D925D926D927C9213978FEF9FEFF9C022
:101480008A30910509F0A2C088E491E09A838983AB
:101490001B821C821D821E821F82188619861A8654
:1014A0000E94C307F80180849184A284B3849B01C5
:1014B000AC01281939094A095B0949015A016D89AA
:1014C0007E89CE0101960E94F903C501B40128EE80
:1014D00033E040E050E00E94A3228B809C80AD80EE
:1014E000BE80820E931EA41EB51E8B829C82AD828E
:1014F000BE829B01AC0160E472E48FE090E00E9448
:1015000055268F809884A984BA84DC01CB01880D8C
:10151000991DAA1DBB1D8F839887A987BA870E9432
:10152000C3078F809884A984BA8436E3931A35E67A
:10153000A30A34ECB30A28EE33E040E050E00E9406
:10154000A3222B8F3C8F4D8F5E8F9B01AC0160E4FB
:1015500072E48FE090E00E945526A5019401261BBD
:10156000370B480B590BCA01B9018B809C80AD80A9
:10157000BE8031E0831A9108A108B1082B8D3C8D03
:101580004D8D5E8D821A930AA40AB50A20E03AECCA
:101590004AE95BE30E94A322820E931EA41EB51E9D
:1015A000D8011C968D929D92AD92BC921F97F80126
:1015B000608B718B828B938B0E94C307AB89BC8934
:1015C0006D937D938D939C931397A5CD8630910554
:1015D00059F46D897E898F8D98A10E94630481E002
:1015E000E9A1FAA1808397CD8B30910521F4A98DD3
:1015F000BA8D1C9290CDFC01E154FE4FEE0FFF1FFF
:10160000E00FF11F80819181009709F484CDDC0106
:10161000ED91FC910190F081E02D6D897E89099515
:101620007ACDF801EE57FB4F8081882301F17801D4
:10163000BDE7EB1ABBEFFB0AF70180819181A28124
:10164000B381A3019201281B390B4A0B5B0BDA0112
:10165000C901853C9940A105B10548F0C8010E9427
:10166000CF07D7014D925D926D927C92139780E0E7
:1016700090E0A8960FB6F894DEBF0FBECDBFDF9105
:10168000CF911F910F91FF90EF90DF90CF90BF907F
:10169000AF909F908F907F906F905F904F903F9012
:1016A0002F9008956F927F928F929F92AF92BF92E8
:1016B000CF92DF92EF92FF921F93CF93DF9300D0F0
:1016C00000D0CDB7DEB7FC0182819381853B9105C7
:1016D00014F084EB90E03C0197FF02C0612C712C68
:1016E00088EE93E0A0E0B0E080933B0990933C0942
:1016F000A0933D09B0933E0980914B0990914C090C
:101700009093300980932F0980913109909132098B
:1017100090933409809333097092320960923109B1
:101720000E94C30760933609709337098093380984
:101730009093390981E080933A0983E090E0909397
:101740004109809340098091350981112AC1109186
:101750002B098091FB088C3008F052C061E0812F8A
:101760000E94C7168091FB08E82FF0E09F01220F2E
:10177000331FE20FF31FE050FC4F1F739081907CEA
:10178000192B10831092FC081092FD086CE00E9447
:101790006526FCE08F9FB001112440E050E09A01E3
:1017A000260F371FF901EE0FFF1F2E0F3F1FF90104
:1017B000E050FC4F908196FD16C04F5F5F4F4C305C
:1017C000510569F781110FC01092800082E080936B
:1017D00081001092850010928400B19A80916F0070
:1017E000826080936F00E091FB08F0E0CF01880FEA
:1017F000991FE80FF91FE050FC4F808180648083BF
:1018000080914609882309F4CCC010924609809142
:101810004709909148092091FB083091FC084091BC
:10182000FD082093FE083093FF0840930009909331
:101830000209809301091092280981E0809326090A
:1018400084EB9FE090932209809321091092240950
:10185000109223091092270910921C0910921B095B
:101860008091000928E532E06901C81AD10887FD96
:10187000D394CC0CDD1CCC0CDD1C0D2C000CEE0824
:10188000FF088091FF0828E830E04901881A910894
:1018900087FD9394880C991C880C991C092C000CCA
:1018A000AA08BB088091FE088F3FC1F090E0FC01C0
:1018B000EE0FFF1F8E0F9F1FFC01E050FC4F218198
:1018C000328143E0220F331F4A95E1F754E0369509
:1018D00027955A95E1F72E5F3F4F02C020E030E098
:1018E0002F5F3F4FC901330FAA0BBB0B9C01AD010A
:1018F000281939094A095B09A4EBB0E00E94592272
:10190000A7019601281939094A095B090E943A2260
:10191000B901330F880B990B0E941D219B01AC016B
:1019200060930709709308098093090990930A0945
:101930006093030970930409809305099093060945
:1019400010920B0910920C0910920D0910920E09B9
:1019500080911D0990911E0918161906FCF4E0905B
:101960001909F0901A09F70160817181072E000CA6
:10197000880B990B29833A834B835C830E941D213A
:1019800029813A814B815C810E94AC2360930B09D1
:1019900070930C0980930D0990930E0981E0809358
:1019A000270981E08093350980912F0990913009B2
:1019B000FC01E619F709F7FF03C0F195E195F1097C
:1019C00020910709309108094091090950910A09AD
:1019D000B301770C880B990BE0900109F090020994
:1019E00010921E0910921D092093030930930409D7
:1019F000409305095093060929833A834B835C83FE
:101A0000E530F1059CF40E941D2129813A814B812A
:101A10005C810E94AC2360930B0970930C09809346
:101A20000D0990930E0984EF91E027C03A979CF43A
:101A30000E941D2129813A814B815C810E94AC2347
:101A400060930B0970930C0980930D0990930E0914
:101A500088EE93E012C00E941D2129813A814B81BA
:101A60005C810E94AC2360930B0970930C098093F6
:101A70000D0990930E0980ED97E0909310098093E3
:101A80000F09B7010E94712670931409609313091E
:101A900010921209109211091092260981E0809388
:101AA00025090F900F900F900F90DF91CF911F910C
:101AB000FF90EF90DF90CF90BF90AF909F908F906E
:101AC0007F906F900895CF93DF93FC0162817381C3
:101AD000072E000C880B990B0E941D2120E030E09E
:101AE00044EB53E40E94CC24CEE5D9E0698B7A8B99
:101AF0008B8B9C8B81E0888F0E94C3076D877E87CC
:101B00008F87988BDF91CF9108958F929F92AF929C
:101B1000BF92CF92DF92EF92FF920F931F93CF93DA
:101B2000DF9387E00E946E16EC0188E00E946E163B
:101B3000C817D90719F0CFEFDFEF02C0C1E0D0E03E
:101B40000E94C30760936B0970936C0980936D09C1
:101B500090936E0980908E0990908F09A0909009C3
:101B6000B090910920E030E040E85FEBC501B4019E
:101B70000E941621882309F462C080917409882389
:101B800009F45DC0AE01DD0F660B770B809167092C
:101B900090916809A0916909B0916A098A019B0135
:101BA000080F191F2A1F3B1FC901B80100936709BD
:101BB000109368092093690930936A090E941D21D6
:101BC00020E030E848ED54E40E94192420E030E0A1
:101BD00044EB53E40E947C2120E030E044EB53E4EA
:101BE0000E94CC246B017C0120E030E0A9010E941E
:101BF000162187FF0AC020E030E044EB53E4C70120
:101C0000B6010E94AD236B017C01A5019401C701BF
:101C1000B6010E941621882391F0C0928E09D092BD
:101C20008F09E0929009F09291090E94C307609396
:101C30009709709398098093990990939A09DF9175
:101C4000CF911F910F91FF90EF90DF90CF90BF90B9
:101C5000AF909F908F900C9454181F920F920FB6D4
:101C60000F9211242F933F938F939F93AF93BF9322
:101C70008091430390914403A0914503B0914603A2
:101C80003091420323E0230F2D3720F40196A11D4C
:101C9000B11D05C026E8230F0296A11DB11D20939A
:101CA00042038093430390934403A0934503B0936E
:101CB00046038091470390914803A0914903B09156
:101CC0004A030196A11DB11D8093470390934803D9
:101CD000A0934903B0934A03BF91AF919F918F9115
:101CE0003F912F910F900FBE0F901F90189510925B
:101CF00075090E944918ABEFB8E084E090E090933A
:101D0000410980934009EC91F0E0CF01880F991FC1
:101D1000E80FF91FE050FC4F80818F7B8083DA96BB
:101D20001C9208950C94770ECF93DF931F92CDB73A
:101D3000DEB76983DC01ED91FC910280F381E02D37
:101D400041E050E0BE016F5F7F4F09950F90DF913A
:101D5000CF91089583E08093E9008091F200882379
:101D600019F08AE38093E8000895FC018485958545
:101D700097FD0BC09FB7F89482E08093E9008091B3
:101D8000F2009FBF90E0019608959FB7F89482E01B
:101D90008093E9008091F2009FBF90E008958091C8
:101DA000560381110DC082E08093520384E080933A
:101DB0005303109255031092540381E0809356030D
:101DC00082E593E008954091500350915103209192
:101DD0004E0330914F0342175307B4F49091E8003B
:101DE0009570E1F39091E80092FD19C08093F100A5
:101DF000809150039091510301968F739927892BFD
:101E000019F48EEF8093E800809150039091510374
:101E10000196909351038093500381E0089580E0F0
:101E20000895CF92DF92EF92FF920F931F93CF937B
:101E3000DF931F92CDB7DEB7182F062FE42E862F23
:101E4000880F8E5F99830E94E30E83E00E94E30E69
:101E5000F12EC12E9981D92E8C2D8F19801798F4CF
:101E6000F601E7FE02C0849101C080810E94E30E6A
:101E7000182F80E00E94E30E8123FFEFCF1ADF0AC4
:101E80008111EACF01C081E00F90DF91CF911F91C6
:101E90000F91FF90EF90DF90CF900895DF92EF9237
:101EA000FF920F931F93CF93DF93D82E8A017B016C
:101EB000E40EF51EEB01CE15DF0571F0D7FE03C071
:101EC000FE01849101C088810E94E30E2196811158
:101ED000F2CF8FEF9FEF01C0C801DF91CF911F912B
:101EE0000F91FF90EF90DF9008950F931F93CF9382
:101EF000DF931F92CDB7DEB782E0898342E450E0E2
:101F000068EE70E080E80E944E0F0E94CF0EDC0168
:101F100012960D911C9113970115110569F0D801C6
:101F2000ED91FC910280F381E02DBE016F5F7F4F48
:101F3000C801099597FF07C089810F90DF91CF9164
:101F40001F910F910895F80100851185E5CF61502B
:101F500030F02091F100FC0120830196F8CF289801
:101F600084E68093610308954F925F926F927F920F
:101F70008F929F92AF92BF92CF92DF92EF92FF9299
:101F80000F931F93CF93DF93CDB7DEB728970FB68C
:101F9000F894DEBF0FBECDBF6D837E838F8398879D
:101FA00029013A01E982FA820B831C83C601B5013B
:101FB00020E030E040E05FE30E947C219B01AC0127
:101FC0006D817E818F8198850E9419246B017C012F
:101FD00020E030E040E85FE30E94162187FF15C053
:101FE00020E030E040E05FE369817A818B819C8171
:101FF0000E947C21A70196010E947C21A7019601E5
:102000000E947C21A70196012AC020E030E040E038
:1020100050E4C701B6010E94AC236B017C0120E0B3
:1020200030E040E05FE369817A818B819C810E948E
:102030007C214B015C01A7019601C701B6010E94FA
:102040007C21A70196010E947C2120E030E040E045
:1020500050E40E94AD239B01AC01C501B4010E9474
:102060007C21A30192010E94AD2328960FB6F8941B
:10207000DEBF0FBECDBFDF91CF911F910F91FF90BB
:10208000EF90DF90CF90BF90AF909F908F907F9018
:102090006F905F904F900895FC01918D828D9817FD
:1020A00061F0828DDF01A80FB11D5D968C91928D3C
:1020B0009F5F9F73928F90E008958FEF9FEF089539
:1020C000FC01918D828D981731F0828DE80FF11D02
:1020D000858D90E008958FEF9FEF0895FC01918D1D
:1020E000228D892F90E0805C9F4F821B91098F7316
:1020F0009927089580E090E0892B29F00E941C1513
:1021000081110C94000008950F931F93CF93DF93D8
:102110001F92CDB7DEB78C01FC018485958597FFB2
:102120000EC0CE0101960E942F1A019719F4298141
:1021300030E002C02FEF3FEFF80135872487F80128
:10214000848595850F90DF91CF911F910F91089510
:10215000CF93DF931F92CDB7DEB7FC0184859585C1
:1021600097FD05C02FEF3FEF358724870BC0CE01C9
:1021700001960E942F1A019719F4898190E002C0FC
:102180008FEF9FEF0F90DF91CF9108951F920F92E5
:102190000FB60F9211248F939F938091E10090913D
:1021A000E100937F9093E10083FF0FC01092E9005C
:1021B00091E09093EB001092EC0092E39093ED008D
:1021C0001092620398E09093F00082FF20C093E0A9
:1021D0009093E9009091F200992319F09AE390937B
:1021E000E80090915F03992339F090915F0391503B
:1021F00090935F03992389F190916103992339F0BA
:1022000090916103915090936103992341F184FF70
:1022100010C08091E2008E7E81608093E200809108
:10222000E1008F7E8093E100809160038E7E80616B
:1022300011C080FF16C08091E2008E7E8061809385
:10224000E2008091E1008E7E8093E1008091600346
:102250008E7E81608093600304C05D9ACDCF289A02
:10226000D6CF9F918F910F900FBE0F901F90189512
:102270001F920F920FB60F921124CF92DF92EF921E
:10228000FF920F931F932F933F934F935F936F93FF
:102290007F938F939F93AF93BF93EF93FF93CF93CE
:1022A000DF93CDB7DEB76C97DEBFCDBF1092E900EC
:1022B0008091E80083FFEDC168E0CE0145960E9461
:1022C000A70F82EF8093E8008D8987FF05C090916A
:1022D000E80090FFFCCF03C09EEF9093E800982F9A
:1022E000907609F0C6C09E892F89188D91110CC077
:1022F000803829F480914C038093F10002C0109241
:10230000F1001092F10048C1422F50E0512B913062
:1023100051F4811141C14130510509F03DC1809115
:102320004C038D7F0BC0933061F4811135C1413076
:10233000510509F031C180914C03826080934C03B8
:102340002BC1953041F48091E80080FFFCCF2068DC
:102350002093E30021C1963009F05FC0EB8CFC8C28
:102360001092E9001092510310925003123091F52F
:1023700010924F0310924E030E94750F99E0BE0118
:102380006F5F7F4FDB01E92F1D92EA95E9F7998393
:102390001A8391E09E8390EA98879AEF998720911B
:1023A000500330915103275F3F4F3C832B838D8334
:1023B0001092E9001092510310925003F0924F03D3
:1023C000E0924E0349E050E080E00E944E0F0E94F0
:1023D000750FE2C0F0924F03E0924E030E94CF0EC1
:1023E000DC011296ED90FC901397E114F10409F4CE
:1023F000C0C0D701ED91FC910480F581E02DBE01B4
:102400006B5E7F4FC7010995009719F00CF0C4C0AF
:10241000C7C0F701E084F184E8CF973009F4C0C069
:10242000983021F481E08093F100B6C0993009F032
:10243000B3C0837009F0B4C0EDE5F1E081E021E0C4
:1024400036E39081992361F08093E9002093EB00BB
:1024500091919093EC003093ED008F5F873089F776
:102460008EE78093EA001092EA008F8980936203DE
:1024700093C08B8D9C8D1092E900109251031092A5
:10248000500390934F0380934E03898D811156C062
:102490008E899D89913A59F4813209F081C047E0D3
:1024A00050E06EE071E080E00E944E0F75C0913206
:1024B00009F076C0833289F4888D90E0982F8827C0
:1024C0002F89822BA0E0B0E080930001909301015E
:1024D000A0930201B09303015FC0803269F4809140
:1024E000E80082FFFCCF67E08EE091E00E94A70F3A
:1024F0008BEF8093E80006C0823209F04DC08F89CF
:102500008093150180914B03882319F0EEEFFAE0D8
:1025100002C0E0E0F8E080910E0190910F01A091DF
:102520001001B0911101803B9440A105B10509F063
:102530007BC08091150180FF93C076C00E94CF0EB2
:10254000DC0112960D911C9113970115110541F1B3
:10255000D801ED91FC910190F081E02DBE016B5E00
:102560007F4FC8010995811117C0F80100851185B9
:10257000ECCF113009F44EC0133091F48F898823C9
:1025800009F445C0823081F440E86CE08CE491E0CD
:102590000E94110F882321F08EEF8093E80079C00C
:1025A00081E28093EB0075C0813029F440E86BE054
:1025B00080E491E0EDCF833099F70E94CF0EDC01EB
:1025C0001296ED90FC9013978E010F5F1F4F6801DC
:1025D000E114F10479F0D701ED91FC910680F781C7
:1025E000E02DB801C7010995080F111DF701E0841E
:1025F000F184EECFD8011C92F60101900020E9F79A
:102600003197BF016C197D0940E0C601C1CF6AE274
:1026100071E002C06EE271E06115710509F2FB0123
:10262000449150E080E840CF0FB6F894A89580918F
:102630006000886180936000109260000FBEA895D2
:10264000EE3F2AE0F20739F08091FE0A9091FF0AEE
:1026500091838083A1CF1092FF0A1092FE0A9CCF33
:10266000EE3F8AE0F80731F0808191819093FF0A74
:102670008093FE0A87E797E7918380839BE088E158
:102680000FB6F894A895809360000FBE90936000F9
:1026900083CF6C960FB6F894DEBF0FBECDBFDF912F
:1026A000CF91FF91EF91BF91AF919F918F917F91CA
:1026B0006F915F914F913F912F911F910F91FF90DB
:1026C000EF90DF90CF900F900FBE0F901F90189556
:1026D0001F920F920FB60F9211242F933F934F9397
:1026E0005F936F937F938F939F93AF93BF93EF937A
:1026F000FF9380914D0387FF05C0109285001092D3
:1027000084001BC020914D03022E000C330B8091DE
:10271000240490E02817390784F480914D03082E93
:10272000000C990BFC01EE0FFF1F8E0F9F1FFC0189
:10273000E050FC4F808186FD15C080914D038F5F76
:1027400080934D0320914D03022E000C330B80919A
:10275000240490E028173907C4F480914D038C308D
:1027600064F113C080914D03082E000C990BFC01FD
:10277000EE0FFF1F8E0F9F1FFC01E050FC4F80816A
:1027800060E08F730E949716D8CF8091840090915B
:102790008500049680349C4918F480E49CE905C0C7
:1027A0008091840090918500049690938900809395
:1027B00088008FEF80934D033BC0209184003091BF
:1027C000850080914D03082E000C990BFC01EE0F43
:1027D000FF1F8E0F9F1FFC01E050FC4F81819281F3
:1027E000820F931F909389008093880080914D03FE
:1027F000082E000C990BFC01EE0FFF1F8E0F9F1F80
:10280000FC01E050FC4F808186FF12C080914D0397
:10281000082E000C990BFC01EE0FFF1F8E0F9F1F5F
:10282000FC01E050FC4F808161E08F730E9497169D
:10283000FF91EF91BF91AF919F918F917F916F9198
:102840005F914F913F912F910F900FBE0F901F906E
:102850001895FC01848DDF01A80FB11DA35ABF4F4D
:102860002C91848D90E001968F739927848FA6898F
:10287000B7892C93A089B1898C9180648C93938DB6
:10288000848D981306C00288F389E02D80818F7DA6
:1028900080830895EF92FF920F931F93CF93DF935E
:1028A000EC0181E0888F9B8D8C8D981305C0E889A1
:1028B000F989808185FD24C0F62E0B8D10E00F5F15
:1028C0001F4F0F731127E02E8C8DE8120CC00FB62E
:1028D00007FCFACFE889F989808185FFF5CFCE0121
:1028E0000E942914F1CF8B8DFE01E80FF11DE35AF0
:1028F000FF4FF0820B8FEA89FB898081806207C0DD
:10290000EE89FF896083E889F9898081806480830A
:1029100081E090E0DF91CF911F910F91FF90EF90B8
:102920000895CF93DF93EC01888D8823C9F0EA895D
:10293000FB89808185FD05C0A889B9898C9186FDB8
:102940000FC00FB607FCF5CF808185FFF2CFA889B5
:10295000B9898C9185FFEDCFCE010E942914E7CF74
:10296000DF91CF910895CF92DF92EF92FF920F9374
:102970001F93CF93DF936C017A018B01C0E0D0E00D
:10298000CE15DF0589F0D8016D918D01D601ED914D
:10299000FC910190F081E02DC6010995892B11F47D
:1029A0007E0102C02196ECCFC701DF91CF911F912C
:1029B0000F91FF90EF90DF90CF900895089590E0F1
:1029C000FC013197EF30F105B0F5EA5AFF4F0C9456
:1029D0008526809180008F7703C0809180008F7D55
:1029E00080938000089580918000877FF9CF84B51F
:1029F0008F7702C084B58F7D84BD0895809190004B
:102A00008F7707C0809190008F7D03C080919000E8
:102A1000877F8093900008958091C0008F7703C0D6
:102A20008091C0008F7D8093C00008958091C20086
:102A3000877F8093C200089583E693E00E946E1022
:102A400021E0892B09F420E0822F08950E949E2323
:102A50001F920F920FB60F9211242F933F934F9313
:102A60005F936F937F938F939F93AF93BF93EF93F6
:102A7000FF9383E693E00E942914FF91EF91BF91A9
:102A8000AF919F918F917F916F915F914F913F9106
:102A90002F910F900FBE0F901F9018951F920F92BD
:102AA0000FB60F9211242F938F939F93EF93FF9361
:102AB000E0917303F09174038081E0917903F091C8
:102AC0007A0382FD12C0908180917C038F5F8F73A7
:102AD00020917D03821751F0E0917C03F0E0ED59E5
:102AE000FC4F958F80937C0301C08081FF91EF9113
:102AF0009F918F912F910F900FBE0F901F9018955F
:102B0000823108F08251E82FF0E0EF53FE4FE4915C
:102B100080917B00E3FB222720F930E095E0220F33
:102B2000331F9A95E1F78F7D282B20937B00E77068
:102B3000E064E0937C0080917A00806480937A0066
:102B400080917A0086FDFCCF8091780020917900F9
:102B500090E0922B08951F920F920FB60F921124BE
:102B60002F933F934F935F936F937F938F939F9395
:102B7000AF93BF93EF93FF93E0910C01F0910D01A0
:102B80000995FF91EF91BF91AF919F918F917F91A7
:102B90006F915F914F913F912F910F900FBE0F90CA
:102BA0001F9018951F920F920FB60F9211242F931A
:102BB0003F934F935F936F937F938F939F93AF93C5
:102BC000BF93EF93FF93E0910A01F0910B010995F8
:102BD000FF91EF91BF91AF919F918F917F916F91F5
:102BE0005F914F913F912F910F900FBE0F901F90CB
:102BF00018951F920F920FB60F9211242F933F93A7
:102C00004F935F936F937F938F939F93AF93BF93F4
:102C1000EF93FF93E0910801F09109010995FF916D
:102C2000EF91BF91AF919F918F917F916F915F9144
:102C30004F913F912F910F900FBE0F901F901895BD
:102C40001F920F920FB60F9211242F933F934F9321
:102C50005F936F937F938F939F93AF93BF93EF9304
:102C6000FF93E0910601F09107010995FF91EF9123
:102C7000BF91AF919F918F917F916F915F914F9194
:102C80003F912F910F900FBE0F901F9018951F929C
:102C90000F920FB60F9211242F933F934F935F9390
:102CA0006F937F938F939F93AF93BF93EF93FF9314
:102CB000E0910401F09105010995FF91EF91BF9119
:102CC000AF919F918F917F916F915F914F913F91C4
:102CD0002F910F900FBE0F901F901895CF93DF93F9
:102CE000282F30E0F901E353FE4F8491F901EE55AE
:102CF000FE4FD491F901ED57FE4FC491CC2391F0D2
:102D000081110E94DF14EC2FF0E0EE0FFF1FEB5853
:102D1000FE4FA591B491EC91ED2381E090E021F478
:102D200080E002C080E090E0DF91CF9108951F9392
:102D3000CF93DF93282F30E0F901E353FE4F8491C6
:102D4000F901EE55FE4FD491F901ED57FE4FC491B4
:102D5000CC23C9F0162F81110E94DF14EC2FF0E074
:102D6000EE0FFF1FE959FE4FA591B4918FB7F8946C
:102D7000111105C09C91ED2FE095E92302C0EC9163
:102D8000ED2BEC938FBFDF91CF911F910895CF93DF
:102D9000DF9390E0FC01EE55FE4F2491FC01ED57CE
:102DA000FE4F8491882361F190E0880F991FFC0108
:102DB000E75AFE4FC591D491FC01E959FE4FA59108
:102DC000B491611109C09FB7F8948881209582233E
:102DD0008883EC912E230BC0623061F49FB7F89486
:102DE0003881822F809583238883EC912E2B2C931E
:102DF0009FBF06C08FB7F894E8812E2B28838FBF22
:102E0000DF91CF9108950F931F93CF93DF93292FD5
:102E10002095221F2227221F20936009EC0197FF93
:102E200003C0D195C195D109D0935F09C0935E09C4
:102E3000009163091091640961E0802F0E94C71618
:102E4000209709F480C0CF3FD10509F47EC0F80176
:102E5000FF27E353FE4FE4914E2F50E0FA013197E4
:102E6000EF30F10508F06CC0EB59FF4F0C9485264C
:102E700084B5806884BDC7BD6CC084B5806284BDE4
:102E8000C8BD67C080918000806880938000D09327
:102E90008900C09388005DC080918000806280932B
:102EA0008000D0938B00C0938A0053C08091800033
:102EB000886080938000D0938D00C0938C0049C0BF
:102EC00080919000806880939000D0939900C09387
:102ED00098003FC080919000806280939000D093D2
:102EE0009B00C0939A0035C08091900088608093C9
:102EF0009000D0939D00C0939C002BC08091C00097
:102F000080688093C0008091C0008F7B8093C00058
:102F1000C093CF001EC08091C00080628093C0002B
:102F2000C093D00016C08091C20088608093C20018
:102F30008091C2008B7F8093C200C093D20009C0F1
:102F4000C038D10514F460E001C061E0802F0E9418
:102F500097166091600984E0DF91CF911F910F91E6
:102F60000C9497167F928F929F92AF92BF92CF92BE
:102F7000DF92EF92FF920F931F93CF93DF936C0139
:102F80005B017A0180911501882309F46BC080915F
:102F90006203882309F466C08091600380FF05C046
:102FA0008091E00082608093E000E70110E00AEF8A
:102FB00083E0982E90E4792E2AE3822E209709F45C
:102FC00048C08FB7F8949092E9009091E80095FF7F
:102FD00006C09091F200272D291B922F01C090E08E
:102FE0008FBF91110AC0015009F43CC061E070E04C
:102FF00080E090E00E948907E1CF292F30E0C217DE
:10300000D3070CF49C2F8FB7F8949092E90020918D
:10301000E80025FF1CC0292F30E0C21BD30BF501AF
:10302000915020F041914093F100FACFA20EB31ECF
:10303000112319F08092E80009C09091E80095FDF5
:1030400006C08092E80011E0209709F010E08FBFE1
:10305000B5CF1111B6CF5D9884E680935F031E143F
:103060001F0444F081E090E0F6019383828380E0C6
:1030700090E001C0C701DF91CF911F910F91FF90A8
:10308000EF90DF90CF90BF90AF909F908F907F9008
:10309000089580E090E00E940317809175098111E6
:1030A00002C01092760908954F925F926F927F92BC
:1030B0008F929F92AF92BF92CF92DF92EF92FF9248
:1030C000CF93DF9380917409882309F468C1C0907D
:1030D0008E09D0908F09E0909009F090910920E03E
:1030E00030E040E251E4C701B6010E9423251816E2
:1030F00054F020E030E04FEA53E4C701B6010E94EB
:10310000162187FF4CC180E090917809891761F002
:10311000809378090E94C30760937E0970937F09AA
:103120008093800990938109809178098823B9F16F
:1031300020E030E0A90160918A0970918B098091AB
:103140008C0990918D090E941621882369F00E94B4
:10315000C307609397097093980980939909909396
:103160009A0981E08093920910928E0910928F093A
:10317000109290091092910910928A0910928B096D
:1031800010928C0910928D091092670910926809AB
:103190001092690910926A0981E080937409809104
:1031A00074099091A409891761F08093A4090E9481
:1031B000C3076093AA097093AB098093AC099093FD
:1031C000AD0980917409811103C088E790E0D7C0F0
:1031D00080917609882309F49BC020916F09309172
:1031E0007009409171095091720960918E09709136
:1031F0008F0980919009909191090E94AC236B01F5
:103200007C0120E030E0A9010E9423251816E4F497
:1032100020E030E044EB53E4C701B6010E94AC2348
:103220004B015C0120E030E0A9010E942325A701A9
:10323000960118160CF44DC0C501B40190580E94B7
:10324000162187FD34C0C2C020E030E0A901C701CB
:10325000B6010E94162187FF2CC020E030E044EB2D
:1032600053E4C701B6010E94AD234B015C0120E08D
:1032700030E0A9010E94232524013501181624F00D
:1032800077FA709477F8709420E030E0A901C701D4
:10329000B6010E942325A701960118160CF4A0C0C0
:1032A0005058C301B2010E94162187FF02C0750168
:1032B000640120E030E0A901C701B6010E94232586
:1032C00018167CF0F7FAF094F7F8F094CFEFDFEFF0
:1032D0000AC0C501B4010E94162187FF77C075019D
:1032E0006401C1E0D0E00E94C30780906B09909018
:1032F0006C09A0906D09B0906E09DC01CB018819B2
:103300009909AA09BB09813D9740A105B10580F043
:10331000DF91CF91FF90EF90DF90CF90BF90AF9073
:103320009F908F907F906F905F904F900C94491872
:1033300020E030E040E050E4C701B6010E941621D1
:10334000181634F7C701B6010E948B249B01AC010B
:10335000AAE5B0E00E94592224EB30E040E050E0C2
:103360000E943A22BA01A90142595F4F6F4F7F4F25
:10337000C49FC001C59F900DD49F900D1124DF9173
:10338000CF91FF90EF90DF90CF90BF90AF909F9044
:103390008F907F906F905F904F900C940317809167
:1033A00061090E94801520917309222331F0833E28
:1033B00091404CF01092730906C08E3D91401CF470
:1033C00081E080937309809173099ECE20E030E004
:1033D000A901C701B6010E94162187FD3ECF81CF0A
:1033E000C301B2010E94162187FD61CF7ACFAC01E3
:1033F0009091FE089C3090F58091FF0828E830E01D
:10340000281B310987FD3395220F331F220F331FED
:103410004217530784F08091000928E532E0281B09
:10342000310987FD3395220F331F220F331F4217B7
:1034300053070CF49A0122503109220F331F4FB762
:10344000F894892F90E0FC01EE0FFF1F8E0F9F1F55
:10345000FC01E050FC4F328321834FBF0895FC01F3
:1034600080916203811103C08FEF9FEF08959FB792
:10347000F89482E08093E9002091F20030E0121687
:10348000130614F421E030E02115310559F0289895
:1034900084E6809361038091F10080838091F20043
:1034A000882319F09FBFC90108958BE68093E80037
:1034B000F9CFCF93DF9300D000D0CDB7DEB77894AB
:1034C00084B5826084BD84B5816084BD85B5826029
:1034D00085BD85B5816085BD80916E0081608093DA
:1034E0006E00109281008091810082608093810043
:1034F0008091810081608093810080918000816053
:1035000080938000809191008260809391008091EF
:103510009100816080939100809190008160809300
:1035200090008091C10084608093C1008091C100AF
:1035300082608093C1008091C10081608093C1004E
:103540008091C30081608093C3008091C00082603D
:103550008093C0008091C20081608093C2008091FE
:103560007A00846080937A0080917A0082608093F0
:103570007A0080917A00816080937A0080917A004D
:10358000806880937A001092620310924C0310922C
:1035900060038091D70081608093D70080EA809398
:1035A000D80089B5806189BD89B5826089BD09B4BB
:1035B00000FEFDCF61E070E080E090E00E948907AE
:1035C0008091D8008F7C80618093D8008091E0004A
:1035D000807F8093E0008091E1008E7E8093E10007
:1035E0008DE08093E200559A209AEEEFFFE78591F7
:1035F00094918B3F9C4D19F481E080934B0380E0C4
:1036000092ECA1E0B0E08093510490935204A09317
:103610005304B0935404E0914F04F0915004A089F6
:10362000B18982E08C93A485B5851C92A685B78567
:1036300080E18C93108EA489B58986E08C93A28951
:10364000B3898C9180618C93A289B3898C918860B5
:103650008C93A289B3898C9180688C930288F389BA
:10366000E02D80818F7D80831092C6081092C5085E
:103670001092C8081092C7081092CC081092CB087C
:103680001092CA081092C908A3E9B8E0FD0180E0D1
:1036900090E021913191232B81F4FC01EE0FFF1F6B
:1036A000ED56F74F2FE334E0318320838C599F4F41
:1036B000909342048093410404C00196893191059E
:1036C00041F7E3E9F8E080E090E021913191232B8C
:1036D00081F4FC01EE0FFF1FED56F74F21E334E0BC
:1036E000318320838C599F4F90933404809333040B
:1036F00004C001968931910541F780E090E02D9159
:103700003D91232B81F4FC01EE0FFF1FED56F74F87
:1037100025E234E0318320838C599F4F9093280415
:103720008093270404C001968931910541F785E80B
:103730009DE090930D0180930C0180916A008F7C35
:10374000806180936A00EE9A81E08093750980938E
:103750003F09A8E82A2E312CB8E58B2EB2E09B2E2B
:103760008091CF08882321F081E080935E030EC012
:1037700080915E03882351F00E94770E62E370E02F
:1037800080E090E00E94890710925E030E94541826
:103790000E94C307609342097093430980934409D0
:1037A0009093450980912D090E948015092E000CE7
:1037B000AA0BBB0B9C01AD012E51310941095109E6
:1037C000A4EBB0E00E9459222AE332E040E050E04E
:1037D0000E943A2280914B0990914C0982179307DD
:1037E00071F030934C0920934B090E94C3076093FA
:1037F000520970935309809354099093550980910D
:103800004009909141098430910509F4F7C003976C
:1038100009F0EEC00E94C3074090150950901609A8
:103820006090170970901809AB01BC014419550943
:10383000660977098091010990910209092E000C0F
:10384000AA0BBB0B481759076A077B0708F4C1C0CE
:1038500080912509882309F4BCC00E94C3076093A6
:1038600015097093160980931709909318096091B0
:10387000130970911409072E000C880B990B0E94F4
:103880001D215B016C0140900B0950900C09609068
:103890000D0970900E09209103093091040940919F
:1038A0000509509106096091110970911209072EBE
:1038B000000C880B990B29833A834B835C830E940D
:1038C0001D21E0912109F0912209830172012981D2
:1038D0003A814B815C8109956093070970930809CF
:1038E0008093090990930A092091260921110AC0A1
:1038F00020911109309112092F5F3F4F3093120927
:103900002093110940911109509112092091130936
:10391000309114094217530709F48CC0809128098B
:10392000882309F41AC120910709309108094091B0
:10393000090950910A0960E070E084E393E40E9471
:10394000AC232B013C0180912709882309F40EC187
:10395000C09029090C2C000CDD0880912A09B401C3
:10396000681B710987FD7395C60188589109680F16
:10397000791F660F771F660F771F072E000C880BC5
:10398000990B0E941D219B01AC01C301B2010E9451
:103990007C2120E030E044E353E40E9419242B0111
:1039A0003C01B1016C197D09660F771F660F771F07
:1039B000072E000C880B990B0E941D219B01AC0166
:1039C000C301B2010E94AD230E948B24CB010E944F
:1039D000F71980912609882301F180913F0981110F
:1039E0001CC084E090E0909341098093400906C098
:1039F000E4E0F0E0F0934109E0934009E091FB0836
:103A0000F0E0CF01880F991FE80FF91FE050FC4F3D
:103A100080818F7B8083109235098DE494E00E9431
:103A2000070861E070E080E090E00E9489070E9452
:103A30007A1096CEE1E0E0932609C0902309D09059
:103A40002409C114D10459F0A0901B09B0901C099D
:103A50000E948B24DC01CB01B501F6010995209170
:103A60001D0930911E092115310509F457CF8091A8
:103A70001B0990911C0901968217930729F09093D6
:103A80001C0980931B0918C010921C0910921B0975
:103A900080911F09909120090197909320098093AC
:103AA0001F09009719F41092250906C0019621F408
:103AB0001092200910921F092091070930910809DE
:103AC0004091090950910A09209303093093040990
:103AD0004093050950930609C0901B09D0901C091A
:103AE000CC0CDD1CCC0CDD1C8091190990911A09BD
:103AF000C80ED91EF60160817181072E000C880B5B
:103B0000990B29833A834B835C830E941D21298171
:103B10003A814B815C810E94AC2360930B097093C6
:103B20000C0980930D0990930E09F601828193810F
:103B30009093100980930F09609101097091020917
:103B40000E94712670931409609313091092120950
:103B50001092110910922609E1CE40900709509069
:103B600008096090090970900A09EDCEC301B201FD
:103B70000E948B24DB016032F2E07F07DCF577FDE9
:103B800006C0653B71052CF0A4EBB0E002C0A0E0DC
:103B9000B0E08091FF082101481A510887FD539435
:103BA000440C551C440C551C052C000C6608770869
:103BB000809100099401281B310987FD3395220F5C
:103BC000331F220F331FA901330F660B770B9A01A6
:103BD000AB0124193509460957090E94642224EBD8
:103BE00030E040E050E00E943A22420E531E641E34
:103BF000751ED201CD01EBCECF92DF92EF92FF92F4
:103C00001092B9091092B80948EEC42E43E0D42EA0
:103C1000E12CF12CC092BA09D092BB09E092BC0908
:103C2000F092BD0987E691E09093B7098093B609B9
:103C30008FEF9FEF9093C3098093C20910926603A0
:103C400010926503C0926703D0926803E092690303
:103C5000F0926A0387E791E0909364038093630393
:103C60008DEC90E09093700380936F038CEC90E068
:103C7000909372038093710388EC90E090937403A7
:103C80008093730389EC90E090937603809375039F
:103C90008AEC90E090937803809377038EEC90E029
:103CA00090937A038093790310927C0310927D03A2
:103CB00010927E0310927F0310925F0910925E09AA
:103CC00081E0809360091092670910926809109250
:103CD000690910926A0910926B0910926C0910928E
:103CE0006D0910926E0910926F091092700910926E
:103CF000710910927209109273091092740910924E
:103D00007509109276091092790910927A09109229
:103D10007B0910927C0910927D0910927E09109205
:103D20007F091092800910928109109282091092E5
:103D300083091092840910928509109286091092C5
:103D400087091092880910928909109278091092B7
:103D500077090E94C30760937E0970937F0980935F
:103D60008009909381091092860910928709109218
:103D70008809109289090E94C30760938209709391
:103D80008309809384099093850910929209109277
:103D90009709109298091092990910929A09109215
:103DA0009B0910929C0910929D0910929E091092F5
:103DB0009F091092A0091092A1091092A20980E017
:103DC00090E0A0E8BFEB80938E0990938F09A093B9
:103DD0009009B093910980938A0990938B09A093DD
:103DE0008C09B0938D0984EF91E0A0E0B0E080935E
:103DF000930990939409A0939509B09396090E9412
:103E0000C3076093970970939809809399099093D9
:103E10009A09C0929F09D092A009E092A109F0925C
:103E2000A2090E94C30760939B0970939C09809329
:103E30009D0990939E091092A5091092A6091092CF
:103E4000A7091092A8091092A9091092AA09109224
:103E5000AB091092AC091092AD091092AE09109204
:103E6000AF091092B0091092B1091092B2091092E4
:103E7000B3091092B4091092B5091092A4091092D6
:103E8000A3090E94C3076093AA097093AB098093AA
:103E9000AC099093AD091092B2091092B309109237
:103EA000B4091092B5090E94C3076093AE097093DC
:103EB000AF098093B0099093B10984E190E09093A9
:103EC00062098093610985E090E090936409809392
:103ED000630984E090E0909366098093650960E04F
:103EE00084E10E94C71661E0809161090E949716E3
:103EF00061E0809165090E94C71661E080916309C5
:103F00000E94C716809124048C30A0F491E0980F91
:103F1000909324048093FB0890E0FC01EE0FFF1FB8
:103F20008E0F9F1FFC01E050FC4F88EB9BE09283BB
:103F3000818303C08FEF8093FB08809124048C3031
:103F4000A0F491E0980F909324048093FE0890E0F1
:103F5000FC01EE0FFF1F8E0F9F1FFC01E050FC4F76
:103F600088EB9BE09283818303C08FEF8093FE08F0
:103F70001092300910922F098AE590E0909332094F
:103F80008093310910923409109233091092350947
:103F90001092360910923709109238091092390997
:103FA00010923A0910923B0910923C0910923D0977
:103FB00010923E0910923F0984E090E090934109ED
:103FC00080934009109242091092430910924409CB
:103FD0001092450981E08093460984E190E0909336
:103FE00048098093470910924D0910924E0910928A
:103FF0004F091092500910925109109252091092D3
:1040000053091092540910925509109256091092B2
:104010005709109258091092590910925A09109292
:104020005B0910925C0910925D0910924C09109284
:104030004B0910924A09109249090E94C3076093E4
:10404000520970935309809354099093550988EE4F
:1040500093E0A0E0B0E080935A0990935B09A093AD
:104060005C09B0935D090E94C30760935609709381
:104070005709809358099093590986E090E09093EE
:104080002C0980932B0983E190E090932E09809373
:104090002D0961E086E00E94C71660E080912D093D
:1040A0000E94C71683E991E090934E0480934D04DB
:1040B00083E693E09093500480934F0480E091EE68
:1040C000A0E0B0E08093510490935204A093530475
:1040D000B09354041092CF0887E891E09093DE08E3
:1040E0008093DD081092DF081092E0081092E1083A
:1040F0001092E2081092E8081092E7081092E9087E
:104100001092EA081092EB081092EC081092F20854
:104110001092F1081092F3081092F4081092F5082A
:104120001092F6081092FA081092F908E1E6F8E009
:104130001192119288E0E339F807D1F7E3E9F8E04A
:104140001192119288E0E53CF807D1F7E1E6F4E03E
:10415000119286E0E136F807D9F7E1E6F6E0119230
:1041600088E0E136F807D9F74DEC51E05093400470
:1041700040933F0425EB31E03093460420934504FF
:10418000109248041092470483E69DE090934A04FD
:104190008093490481E090E090934C0480934B0419
:1041A0006CE273E0709344046093430450933204D0
:1041B00040933104309338042093370410923A042A
:1041C0001092390422E53BE030933C0420933B04F9
:1041D00090933E0480933D0424E333E0309336040F
:1041E0002093350429EA31E03093260420932504F6
:1041F0002DE931E030932C0420932B0422E93EE09A
:1042000030932E0420932D049093300480932F0438
:104210008DE393E090932A0480932904FF90EF901C
:10422000DF90CF900895F8940C949F260E94582117
:1042300008F481E00895E89409C097FB3EF4909556
:104240008095709561957F4F8F4F9F4F9923A9F06F
:10425000F92F96E9BB279395F695879577956795FE
:10426000B795F111F8CFFAF4BB0F11F460FF1BC042
:104270006F5F7F4F8F4F9F4F16C0882311F096E9D5
:1042800011C0772321F09EE8872F762F05C0662383
:1042900071F096E8862F70E060E02AF09A95660F3C
:1042A000771F881FDAF7880F9695879597F90895F5
:1042B000990F0008550FAA0BE0E8FEEF1616170637
:1042C000E807F907C0F012161306E407F50798F09F
:1042D000621B730B840B950B39F40A2661F0232BB8
:1042E000242B252B21F408950A2609F4A140A69534
:1042F0008FEF811D811D08950E948F210C94002253
:104300000E94F22138F00E94F92120F0952311F04B
:104310000C94E9210C94EF2111240C9434220E9476
:10432000112270F3959FC1F3950F50E0551F629FC6
:10433000F001729FBB27F00DB11D639FAA27F00DFE
:10434000B11DAA1F649F6627B00DA11D661F829F25
:104350002227B00DA11D621F739FB00DA11D621F0A
:10436000839FA00D611D221F749F3327A00D611D27
:10437000231F849F600D211D822F762F6A2F112409
:104380009F5750409AF0F1F088234AF0EE0FFF1F3C
:10439000BB1F661F771F881F91505040A9F79E3F93
:1043A000510580F00C94E9210C9434225F3FE4F332
:1043B000983ED4F3869577956795B795F795E795E9
:1043C0009F5FC1F7FE2B880F911D9695879597F9F2
:1043D000089597F99F6780E870E060E008959FEF87
:1043E00080EC089500240A9416161706180609068C
:1043F000089500240A94121613061406050608955B
:10440000092E0394000C11F4882352F0BB0F40F4E2
:10441000BF2B11F460FF04C06F5F7F4F8F4F9F4F22
:10442000089557FD9058440F551F59F05F3F71F0A4
:104430004795880F97FB991F61F09F3F79F087950B
:104440000895121613061406551FF2CF4695F1DF94
:1044500008C0161617061806991FF1CF8695710524
:10446000610508940895E894BB2766277727CB0158
:1044700097F90895052E97FB1EF400940E9451228F
:1044800057FD07D00E94A32207FC03D04EF40C94E2
:10449000512250954095309521953F4F4F4F5F4F9A
:1044A000089590958095709561957F4F8F4F9F4FA0
:1044B00008950E94C522A59F900DB49F900DA49FC2
:1044C000800D911D11240895B7FF0C9459220E946C
:1044D0005922821B930B08952F923F924F925F9225
:1044E0006F927F928F929F92AF92BF92CF92DF9204
:1044F000EF92FF920F931F93CF93DF93CDB7DEB769
:10450000CA1BDB0B0FB6F894DEBF0FBECDBF0994FC
:104510002A88398848885F846E847D848C849B8453
:10452000AA84B984C884DF80EE80FD800C811B8161
:10453000AA81B981CE0FD11D0FB6F894DEBF0FBE90
:10454000CDBFED010895A1E21A2EAA1BBB1BFD01F0
:104550000DC0AA1FBB1FEE1FFF1FA217B307E40762
:10456000F50720F0A21BB30BE40BF50B661F771FBA
:10457000881F991F1A9469F760957095809590959A
:104580009B01AC01BD01CF010895A29FB001B39F73
:10459000C001A39F700D811D1124911DB29F700D4C
:1045A000811D1124911D0895A0E0B0E0EAEDF2E232
:1045B0000C947022EC01009721F4CB010E94282575
:1045C000B8C0FC01E60FF71F9C0122503109E21729
:1045D000F30708F4ACC0D9010D911C91119706178F
:1045E0001707B0F00530110508F49FC0C801049703
:1045F0008617970708F499C002501109061B170B7C
:10460000019311936D937C93CF010E94BD258DC0C2
:104610005B01A01AB10A4C01800E911EA091080AFC
:10462000B091090A40E050E0E12CF12C109709F418
:104630004AC0A815B905D1F56D907C90119763011A
:1046400082E0C80ED11CCA14DB0480F1A3014A1910
:104650005B096A0182E0C80ED11C1296BC901297C9
:104660001396AC91B5E0CB16D10440F0B282A3838F
:1046700051834083D9016D937C930AC00E5F1F4F15
:10468000C301800F911FF90191838083EB2DFA2FD5
:10469000E114F10431F0D7011396FC93EE931297D5
:1046A00044C0F093090AE093080A3FC08D919C91A1
:1046B00011974817590708F4AC017D0112960D9027
:1046C000BC91A02DB3CF8091060A9091070A88155E
:1046D0009905E1F446175707C8F4809116019091A7
:1046E0001701009741F48DB79EB740911A01509180
:1046F0001B01841B950BE817F907C8F4F093070A10
:10470000E093060AF901718360830FC0CB010E9418
:1047100028257C01009759F0A801BE010E94A3231F
:10472000CE010E94BD25C70104C0CE0102C080E0B9
:1047300090E0CDB7DEB7EEE00C948C2281E090E003
:10474000F8940C949F26FB01DC0102C001900D92AD
:1047500041505040D8F708955058BB27AA270E94CF
:10476000C4230C9400220E94F22138F00E94F92107
:1047700020F039F49F3F19F426F40C94EF210EF445
:10478000E095E7FB0C94E921E92F0E94112258F3F0
:10479000BA17620773078407950720F079F4A6F526
:1047A0000C9433220EF4E0950B2EBA2FA02D0B01A2
:1047B000B90190010C01CA01A0011124FF27591B66
:1047C00099F0593F50F4503E68F11A16F040A22F6C
:1047D000232F342F4427585FF3CF469537952795DD
:1047E000A795F0405395C9F77EF41F16BA0B620BDC
:1047F000730B840BBAF09150A1F0FF0FBB1F661F23
:10480000771F881FC2F70EC0BA0F621F731F841F65
:1048100048F4879577956795B795F7959E3F08F08B
:10482000B0CF9395880F08F09927EE0F979587954D
:1048300008950E942D240C9400220E94F92158F022
:104840000E94F22140F029F45F3F29F00C94E92105
:1048500051110C9434220C94EF210E94112268F320
:104860009923B1F3552391F3951B550BBB27AA2729
:1048700062177307840738F09F5F5F4F220F331F63
:10488000441FAA1FA9F335D00E2E3AF0E0E832D02B
:1048900091505040E695001CCAF72BD0FE2F29D02E
:1048A000660F771F881FBB1F261737074807AB0700
:1048B000B0E809F0BB0B802DBF01FF2793585F4F75
:1048C0003AF09E3F510578F00C94E9210C94342283
:1048D0005F3FE4F3983ED4F3869577956795B79557
:1048E000F7959F5FC9F7880F911D9695879597F962
:1048F0000895E1E0660F771F881FBB1F62177307DB
:104900008407BA0720F0621B730B840BBA0BEE1FEF
:1049100088F7E09508950E9492246894B1110C9450
:10492000342208950E94192288F09F5798F0B92FD9
:104930009927B751B0F0E1F0660F771F881F991FD4
:104940001AF0BA95C9F714C0B13091F00E94332221
:10495000B1E008950C943322672F782F8827B85F31
:1049600039F0B93FCCF3869577956795B395D9F72C
:104970003EF490958095709561957F4F8F4F9F4F36
:1049800008950E94F22120F019F00E94F92150F4BC
:104990000C94EF210C943422E92F0E94112288F309
:1049A0005523B1F3E7FB6217730784079507A8F156
:1049B00089F3E92FFF2788232AF03197660F771FA5
:1049C000881FDAF7952F5527442332F09150504035
:1049D000220F331F441FD2F7BB27E91BF50B621BC5
:1049E000730B840BB109B1F222F4620F731F841FA1
:1049F000B11D31972AF0660F771F881FBB1FEFCFBD
:104A00009150504062F041F0882332F0660F771FDA
:104A1000881F91505040C1F793950C9415258695A9
:104A2000779567959F5FD9F7F7CF9F3F31F091500A
:104A300020F4879577956795B795880F911D969582
:104A4000879597F908950E94582108F48FEF0895EB
:104A5000CF93DF938230910510F482E090E0E091F3
:104A6000080AF091090A20E030E0C0E0D0E0309779
:104A700011F14081518148175907C0F04817590773
:104A800061F482819381209719F09B838A832BC0E4
:104A90009093090A8093080A26C02115310519F060
:104AA0004217530718F49A01BE01DF01EF0102809B
:104AB000F381E02DDCCF2115310509F1281B390BDD
:104AC0002430310590F412968D919C9113976115C5
:104AD000710521F0FB019383828304C09093090A3E
:104AE0008093080AFD01329644C0FD01E20FF31FD6
:104AF00081939193225031092D933C933AC0209198
:104B0000060A3091070A232B41F4209118013091B5
:104B100019013093070A2093060A2091160130915B
:104B200017012115310541F42DB73EB740911A0107
:104B300050911B01241B350BE091060AF091070AE6
:104B4000E217F307A0F42E1B3F0B2817390778F064
:104B5000AC014E5F5F4F2417350748F04E0F5F1FC3
:104B60005093070A4093060A8193919302C0E0E0B4
:104B7000F0E0CF01DF91CF9108950F931F93CF9372
:104B8000DF93009709F48CC0FC01329713821282E4
:104B90000091080A1091090A0115110581F420817C
:104BA0003181820F931F2091060A3091070A28173E
:104BB000390779F5F093070AE093060A71C0D80126
:104BC00040E050E0AE17BF0750F412962D913C9193
:104BD0001397AD012115310509F1D901F3CF9D01DD
:104BE000DA013383228360817181860F971F8217D8
:104BF000930769F4EC0128813981260F371F2E5F56
:104C00003F4F318320838A819B8193838283452B0D
:104C100029F4F093090AE093080A42C01396FC9322
:104C2000EE931297ED01499159919E01240F351F82
:104C3000E217F30771F480819181840F951F02962A
:104C400011969C938E938281938113969C938E935D
:104C50001297E0E0F0E0D80112968D919C911397A5
:104C6000009719F0F8018C01F6CF8D919C91980175
:104C70002E5F3F4F820F931F2091060A3091070A43
:104C80002817390769F4309729F41092090A10920D
:104C9000080A02C0138212821093070A0093060AC0
:104CA000DF91CF911F910F910895DB018F939F9317
:104CB0000E945922BF91AF91A29F800D911DA39F89
:104CC000900DB29F900D11240895991B79E004C0B6
:104CD000991F961708F0961B881F7A95C9F780953B
:104CE000089597FB072E16F4009407D077FD09D09E
:104CF0000E948B2607FC05D03EF4909581959F4F2E
:104D00000895709561957F4F0895EE0FFF1F0590F0
:104D1000F491E02D0994AA1BBB1B51E107C0AA1F07
:104D2000BB1FA617B70710F0A61BB70B881F991F4C
:104D30005A95A9F780959095BC01CD010895F894F6
:024D4000FFCFA3
:104D4200FFFFFFFFDE14DE14DE14DE14DE1400E1CA
:104D520000000000000000000A0A8000726F7373F6
:104D6200657269616C5F6D7367732F5265717565EA
:104D72007374506172616D00000000000A07030342
:104D82000003FD02000000003F04F903F603F303F1
:104D920000000000DE06A502A2029F0200C180817F
:104DA20000000000000000940EB217B50EA8108497
:104DB20010AA0E000000004A14B3146E104C1060CA
:104DC20010911400000000120663049C0299020074
:104DD200000000610107080C020000000096029327
:104DE2000290028D02000000005A01560153015048
:104DF2000100000000840262025F025C0200000007
:104E0200002615261526152615000000006F024CF7
:104E12000149014601383532343538366533346656
:104E22006264376362316330386335663566316395
:104E32006130653537007374645F6D7367732F4932
:104E42006E743136006434316438636439386630E4
:104E5200306232303465393830303939386563661A
:104E62003834323765007374645F6D7367732F452E
:104E72006D707479004D6573736167652066726F3A
:104E82006D206465766963652064726F7070656415
:104E92003A206D657373616765206C617267657234
:104EA200207468616E206275666665722E003966CE
:104EB20030653938626461363539383139383664AB
:104EC2006466353361666137613430653439003187
:104ED20031616264373331633235393333323631DB
:104EE20063643631383362643132643632393500C4
:104EF200726F7373657269616C5F6D7367732F4C48
:104F02006F6700306164353166383866633434382F
:104F120039326638633130363834303737363436E2
:104F220030303500726F7373657269616C5F6D73D7
:104F320067732F546F706963496E666F00636437DD
:104F42003136366337346335353263333131666235
:104F52006363326665356137626332383900737470
:104F6200645F6D7367732F54696D650070616E2F96
:104F72007365740074696C742F7365740068616C76
:024F82007400B9
:00000001FF
